:060000000A128A11122809
:10000800FE00030EF7000408F8000A08F90083123E
:1000180003137F08FA000A128A15852E0A128A111C
:100028001528831603130A128A11FC270A128A114B
:10003800B700831203130A128A11FB270A128A11C6
:10004800EF008313A0308400B4300A128A154824C4
:10005800EE01FB01FC01FD0183010A128A118529C9
:1000680083120313BB002F30B1003108B5000130F3
:1000780083120313AE07FF302E0784000A128A1179
:100088006D270A128A11B1003108BC003C08031917
:100098007E2925303C0603195D283C08B1003B0841
:1000A80084003108831380000130B1003108BB0798
:1000B8003B28B901BA01B4012E0884000A128A113A
:1000C8006D270A128A110A128A155F240A128A11E8
:1000D800031CB42883120313B901BA010A3083122E
:1000E8000313A0000030A1003A08A3003908A200B9
:1000F8000A128A159B240A128A11831203132108F3
:10010800BA002008B9002E0884000A128A116D2747
:100118000A128A11D03EB100FF3003180030B20035
:100128003108B9070318BA0A3208BA070130B10012
:100138003108AE072E0884000A128A116D270A12A8
:100148008A110A128A155F240A128A11031CB4281C
:100158007228C03083120313B1003108B404C828D0
:10016800013083120313AE07FF302E0784000A12F2
:100178008A116D270A128A11BC00003A03197E29D8
:10018800753A0319AD283B28350884008313000805
:10019800B600840A0008B7000230B1003108B5077C
:1001A800BC01BC0A05303C060319FB283C08B10019
:1001B8003107013E84000A128A116D270A128A113A
:1001C800B2000A128A116D270A128A11B300330885
:1001D8003702031DF12832083602031CFB280130C0
:1001E800B1003108BC0705303C06031DDA283C087D
:1001F800B100B201B11BB2033208803AB3003A0829
:10020800803A3302031D0A293908310203181A29D2
:10021800831203133C08B100B201B11BB2033108C9
:10022800B9023208031CBA03BA021E298312031347
:10023800B901BA0139083A04031937292030B10045
:100248003B0884003108831380000130B100310875
:10025800BB07FF30B9070318BA0AFF30BA073908D5
:100268003A04031D22293C08B1003108B800FF30C8
:10027800B1003108B807380A03193B280A30A8002A
:100288000030A9003808B1003107013E84000A1285
:100298008A116D270A128A11A0000A128A116D2785
:1002A8000A128A11A1003708A3003608A2000A1210
:1002B8008A1506260A128A11831203132108AB0035
:1002C8002008AA000A128A1520250A128A11831208
:1002D80003132808303EB2003208BC003C08B100C5
:1002E8003B0884003108831380000130B1003108D5
:1002F800BB073B29831203133B0884008313800147
:10030800080083160313861681130A128A154024DF
:100318000A128A110A128A1554250A128A113230D1
:1003280083120313AE000030AF000A128A15ED24C1
:100338000A128A11831603130710871007128312F3
:10034800031307108B150B108B1701300A128A1133
:1003580002250A128A11023083160313B4003408E6
:1003680083120313A4005830A5008030A600003083
:100378000A128A158D250A128A112730831603134B
:10038800B6000D30B5002530B400B40BC929B50B43
:10039800C929B60BC929D02901300A128A110225A8
:1003A8000A128A1183120313A4014B30A50080306E
:1003B800A60000300A128A158D250A128A113330D8
:1003C80083160313B600BB30B500DF30B400B40B9E
:1003D800EB29B50BEB29B60BEB2901300A128A1170
:1003E80002250A128A112A2A01300A128A110225C4
:1003F8000A128A1183120313A4013B30A50080302E
:10040800A60000300A128A158D250A128A110030BA
:100418000A128A1580240A128A11831203130710FC
:100428000030A000A1000A128A11D3270A128A11EB
:10043800063083160313B6001330B500AD30B40090
:10044800B40B242AB50B242AB60B242A83120313CF
:100458006E08031DF8290A128A119D220A128A11B0
:10046800831203136208FC006108FB001B3083162B
:100478000313B400340883120313AE007C08B000E1
:100488007B08AF00A0300A128A1134200A128A11A0
:1004980083120313A401A030A5000030A600003089
:1004A8000A128A158D250A128A1100307C020B3037
:1004B80003197B020318622A2B30632A0B30831638
:1004C8000313B400340883120313AE00A0300A12D9
:1004D8008A1134200A128A1183120313A401A0304E
:1004E800A5000030A60001300A128A158D250A12CF
:1004F8008A117B080A128A15C9250A128A117C08F2
:1005080083120313A1007B08A0000A128A11D327C3
:100518000A128A11063083160313B6001330B50089
:10052800AD30B400B40B962AB50B962AB60B962AB2
:100538002A2A83120313EA01EB0106140F308312EF
:100548000313E300E30BA62AA92A83120313061058
:100558006030EC00EA30ED00B42AB22AB32A000079
:1005680083120313061AC42A0130EC020030031C5C
:10057800ED03ED026C0A031DB12A6D0A031DB12AB1
:100588006C086D04031DCD2AE730E1000330E2005A
:10059800080090018E018F019010CF309005101443
:1005A8006030EC00EA30ED00DC2ADA2ADB2A0000B1
:1005B80083120313061EEC2A0130EC020030031CE0
:1005C800ED03ED026C0A031DD92A6D0A031DD92A11
:1005D80010106C086D04031DF62AE730E1000330A3
:1005E800E20008000F08EB000E08EA000030A30044
:1005F8000030A2000030A1000530A0006A08A40065
:100608006B08A500A601A7010A128A1532270A124B
:100618008A11831203132308E7002208E600210841
:10062800E5002008E4000030A7000030A6000130F3
:10063800A5005730A4006708A3006608A200650853
:10064800A1006408A0000A128A1544260A128A1119
:10065800831203132308B0002208AF002108AE005C
:100668002008AD000A128A15BE240A128A118312C4
:1006780003132D08B6002E08B7002F08B800003065
:10068800B3009030B4004030B5000A128A117723C5
:100698000A128A11831203133308C6003408C700EC
:1006A8003508C8004030C3009C30C4004630C5003F
:1006B8000A128A114A240A128A1183120313430860
:1006C800D3004408D4004508D5000A128A11D5265B
:1006D800831203135408E9005308E8006908E2008C
:1006E8006808E1000800831203133308B9003408CE
:1006F800BA003508BB0003103A0D3B0DBC003C089E
:10070800BD003D08031D8F2B0030B3000030B4003E
:100718000030B50008003608B9003708BA003808B4
:10072800BB0003103A0D3B0DBC003C08C200420858
:10073800031DA52B0030B3000030B4000030B50015
:10074800080042087B3EB9003908BD073308B900E4
:100758003408BA003508BB0010300310BB0CBA0CC3
:10076800B90CFF3E031DB12B3908BC003C08C20080
:100778003608B9003708BA003808BB001030031033
:10078800BB0CBA0CB90CFF3E031DC32B3908BC00C7
:100798003C08C2068030B9003908C205B417B7173B
:1007A800FF30B605FF30B7050030B8050030BE0091
:1007B8000030BF000030C0000730B9003908C10060
:1007C800331CF42B3608BE07370803110318370A01
:1007D800031DBF07380803110318380A031DC00793
:1007E80001300310B50CB40CB30CFF3E031DF52B00
:1007F80001300310B60DB70DB80DFF3E031DFD2BDC
:100808000130C102031DE42B0930B9003908C100C9
:10081800331C1C2C3608BE07370803110318370A87
:10082800031DBF07380803110318380A031DC00742
:1008380001300310B50CB40CB30CFF3E031D1D2C86
:1008480001300310C00CBF0CBE0CFF3E031D252C4D
:100858000130C102031D0C2C3E08A0003F08A10076
:100868004008A2003D08B9003908A3004208BA00B0
:100878003A08A4000A128A15922783120313200843
:10088800B3002108B4002208B5000800831203133E
:100898004608C9004708CA004808CB0003104A0D9B
:1008A8004B0DCC004C08D1005108031D622C0030C0
:1008B800C3000030C4000030C50008004308C90068
:1008C8004408CA004508CB0003104A0D4B0DCC0064
:1008D8004C08D2005208031D782C0030C3000030A9
:1008E800C4000030C50008000030CE000030CF0042
:1008F8000030D00089305207C9004908D1024608A3
:10090800C9004708CA004808CB0010300310CB0CB8
:10091800CA0CC90CFF3E031D8A2C4908CC004C08A0
:10092800D2004308C9004408CA004508CB0010306B
:100938000310CB0CCA0CC90CFF3E031D9C2C4908A4
:10094800CC004C08D2068030C9004908D205C71728
:10095800FF30C605FF30C7050030C805C417FF3093
:10096800C305FF30C4050030C5051830C900490863
:10097800CD0001300310CE0DCF0DD00DFF3E031D6D
:10098800BE2C45084802031DCF2C44084702031D0E
:10099800CF2C43084602031CDC2C4308C60244083B
:1009A800031C440FC7024508031C450AC8024E141D
:1009B80001300310C60DC70DC80DFF3E031DDD2C09
:1009C8000130CD02031DBD2C4E08A0004F08A10028
:1009D8005008A2005108C9004908A3005208CA00DB
:1009E8004A08A4000A128A159227831203132008C2
:1009F800C3002108C4002208C5000800831203139D
:100A0800A30008102308A10004300310A10CFF3E26
:100A1800031D092D211C142D831203130816172DED
:100A28008312031308122308A10005300310A10C38
:100A3800FF3E031D1A2D211C252D83120313881632
:100A4800282D8312031388122308A10006300310EF
:100A5800A10CFF3E031D2B2D211C362D83120313E1
:100A68000817392D8312031308132308A100073030
:100A78000310A10CFF3E031D3C2D211C472D8312A2
:100A8800031388174A2D8312031388130A128A1531
:100A98006F240A128A1183120313231C572D831201
:100AA800031308165A2D8312031308122308A100F2
:100AB80001300310A10CFF3E031D5D2D211C682D84
:100AC8008312031388166B2D8312031388122308CD
:100AD800A10002300310A10CFF3E031D6E2D211C46
:100AE800792D8312031308177C2D8312031308131F
:100AF8002308A10003300310A10CFF3E031D7F2D26
:100B0800211C8A2D8312031388178D2D831203133A
:100B180088130A128A156F240A128A118312031382
:100B28002303031D08000D3083120313A200FB30BA
:100B3800A100A10B9D2DA20B9D2D0800F30083128F
:100B4800031308107308F10004300310F10CFF3E82
:100B5800031DA92D711CB42D831203130816B72D7C
:100B68008312031308127308F10005300310F10C07
:100B7800FF3E031DBA2D711CC52D83120313881661
:100B8800C82D8312031388127308F100063003106E
:100B9800F10CFF3E031DCB2D711CD62D83120313C0
:100BA8000817D92D8312031308137308F1000730AF
:100BB8000310F10CFF3E031DDC2D711CE72D831281
:100BC80003138817EA2D8312031388130A128A1550
:100BD80050240A128A11731CF52D83120313081668
:100BE800F82D8312031308127308F1000130031063
:100BF800F10CFF3E031DFB2D711C062E83120313FF
:100C08008816092E8312031388127308F100023024
:100C18000310F10CFF3E031D0C2E711C172E8312BE
:100C2800031308171A2E8312031308137308F1000D
:100C380003300310F10CFF3E031D1D2E711C282EDE
:100C48008312031388172B2E8312031388130A1297
:100C58008A1550240A128A117303031D08000D30E7
:100C6800F200FB30F100F10B372EF20B372E3C2E41
:100C7800080083120313A20008142208A1000430FC
:100C88000310A10CFF3E031D442E211C4F2E83127E
:100C980003130816522E8312031308122208A10008
:100CA80005300310A10CFF3E031D552E211C602E9C
:100CB800831203138816632E8312031388122208E3
:100CC800A10006300310A10CFF3E031D662E211C57
:100CD800712E831203130817742E8312031308133B
:100CE8002208A10007300310A10CFF3E031D772E38
:100CF800211C822E831203138817852E8312031357
:100D080088130A128A156F240A128A118312031390
:100D1800221C922E831203130816952E8312031396
:100D280008122208A10001300310A10CFF3E031D88
:100D3800982E211CA32E831203138816A62E831225
:100D4800031388122208A10002300310A10CFF3EF1
:100D5800031DA92E211CB42E831203130817B72EC6
:100D68008312031308132208A10003300310A10CF7
:100D7800FF3E031DBA2E211CC52E831203138817AC
:100D8800C82E8312031388130A128A156F240A12B5
:100D98008A11523083120313A100A10BD12E000037
:100DA8000800831203135308D7005408D8005508C5
:100DB800D9000310580D590DDA005A08E0006008F0
:100DC800031DEF2E0030D6000030D5000030D400CF
:100DD8000030D30008005308D7005408D80055083D
:100DE800D90017300310D90CD80CD70CFF3E031DBF
:100DF800F62E5708DA005A08DB00D417FF30D3055F
:100E0800FF30D4050030D5055308DC005408DD0058
:100E18005508DE00DF018E30E002E01F312F600848
:100E2800803A8F3E0318212F0030D6000030D500BD
:100E38000030D4000030D300080001300310DF0C6C
:100E4800DE0CDD0CDC0CFF3E031D222F0130D70029
:100E58005708E00703194C2F212F18306002031C94
:100E6800492F0030D6000030D5000030D4000030C3
:100E7800D30008000130D7000310DC0DDD0DDE0DB6
:100E8800DF0DD70B402F0130E0026008031D3E2F15
:100E98005B0803195A2FDC09DD09DE09DF09DC0AC2
:100EA8000319DD0A0319DE0A0319DF0A5F08D600F1
:100EB8005E08D5005D08D4005C08D3000800FF1B5D
:100EC8006D2F83137F1883170008840A0319FF0AFC
:100ED800080007308A000408840A820700340134B5
:100EE80000340A34003464340034E83403341034F1
:100EF80027345334743461347434753473343A3465
:100F080020344F344B3420342034203420342034DF
:100F1800003444346934733474343A342034253416
:100F280033347534203463346D3420342034203421
:100F380000345334743461347434753473343A344B
:100F4800203441344C344534523454342134203420
:100F5800003445344D3445345234473445344E34E6
:100F68004334593420344D344F34443445342134D7
:100F78000034533479347334743465346D34203424
:100F88005234653461346434793400345734453428
:100F98004C3443344F344D344534213400348312B7
:100FA80003136E080319DC2F0716871007100800B3
:100FB8000712003021020B30031920020318F82F02
:100FC80007147D08031DEA2F0130EB2F0030A20023
:100FD8002208FD007D1CF42F8312031387140800D8
:100FE80083120313871008000710871008000534C0
:020FF8000134C2
:101880008316031306100616831203139001080033
:1018900064008001840A0406031900340406492CFC
:1018A000831203138815542C552C00008312031344
:1018B0008811A630F000F00B5B2C000008008312AA
:1018C0000313A100A0013A30210203186D2C30301F
:1018D0002102031C6D2CA001A00A200C0800831219
:1018E00003138815732C742C0000831203138811C2
:1018F000A53083120313A000A00B7C2C7F2C0800C2
:1019000083120313A1002108A00002300310A00CD1
:10191000FF3E031D862C2008950021080339A000F6
:1019200004300310A00DFF3E031D912C1708CF3982
:1019300020049700080083120313A401A501201CB2
:10194000A72C2208A4070318A50A2308A50701301D
:101950000310A20DA30DFF3E031DA82C01300310A0
:10196000A10CA00CFF3E031DAF2C20082104031D79
:101970009F2C2508A1002408A00008008E308312A7
:101980000313B1003108B200FF3030050319D62C23
:1019900001300310B00CAF0CAE0CAD0CFF3E031DBC
:1019A000C92C0130B1003108B207C42C2D08A000A9
:1019B0002E08A1002F08A2003208B1003108A300B0
:1019C000A4010A128A159227831203132008AD007E
:1019D0002108AE002208AF000800831203132E086E
:1019E000B0002F08B100B201B30104300310B00DF4
:1019F000B10DB20DB30DFF3E031DF62C3308A3004D
:101A00003208A2003108A1003008A0000130A70070
:101A10003130A6002D30A5000030A4000A128A152E
:101A20003227831203132008FF3E8316031392000C
:101A300005308312031392000C30970095010800C3
:101A4000831203132808290403194F2DAD01AD0A91
:101A5000A91B362D01300310A80DA90DFF3E031D53
:101A60002B2D0130AC002C08AD07282D29082B02A6
:101A7000031D3C2D28082A02031C442D2808AA0215
:101A80002908031CAB03AB0201300310A90CA80CFE
:101A9000FF3E031D452D0130AD02031D362D2B08E1
:101AA000A9002A08A8000800831603138813081346
:101AB0008812081288110810023083120313A6003E
:101AC0004530A500A930A400A40B642DA50B642DFE
:101AD000A60B642D33300A128A1102250A128A15C8
:101AE00032300A128A1102250A128A1528300A1287
:101AF0008A1102250A128A150C300A128A1102254F
:101B00000A128A1501300A128A1102250A128A1550
:101B100006300A128A110225080083120313A80056
:101B200028080319952DC030962D8030A90000306B
:101B3000AA002908A7002708AB0024082B070A12CF
:101B40008A1102250A128A15831203132608FF0040
:101B5000250884000A128A1163270A128A15003A9E
:101B600003190800831203132608FF0025088400C8
:101B70000A128A1163270A128A150A128A113D264F
:101B80000A128A15013083120313A5070318A60A47
:101B9000A42D83120313B200B430A6000030A700B6
:101BA0003208AF00B0012F08A0003008A1001430A7
:101BB000A2000030A3000A128A159B240A128A157B
:101BC000831203132108A9002008A8000A128A150D
:101BD000D7260A128A15831203132608053EB10080
:101BE0003108B30033086F020318FB2D0130AF003A
:101BF0002F08EF07012E6F0833020318012E013062
:101C0000EF026F080A128A1580240800831203135A
:101C1000A501A6012008210403193F2EA701A70A48
:101C2000A11B1E2E01300310A00DA10DFF3E031DB0
:101C3000132E0130A4002408A707102E0130031032
:101C4000A50DA60DFF3E031D1F2E21082302031D17
:101C50002B2E20082202031C342E2008A202210869
:101C6000031CA303A302251401300310A10CA00C34
:101C7000FF3E031D352E0130A702031D1E2E260830
:101C8000A1002508A0000800003083120313AC0057
:101C90000030AB000030AA000030A900201C642EE8
:101CA0002408A907250803110318013E031DAA07EC
:101CB000260803110318013E031DAB072708031173
:101CC0000318013E031DAC070130A8000310A40D4A
:101CD000A50DA60DA70DA80B662E01300310A30CB1
:101CE000A20CA10CA00CFF3E031D6E2E23082204A3
:101CF00021042004031D4E2E2C08A3002B08A20053
:101D00002A08A1002908A00008000B1CCB2E861A67
:101D1000C22E831603133703031DC22E0230F600B2
:101D20004530F500A930F400F40B942EF50B942EF9
:101D3000F60B942E9B2E83120313861AC22E6E0866
:101D4000031DA42E0130A52E0030F4007408EE000F
:101D50006E08031DC22E07140330F6008A30F5000A
:101D60005530F400F40BB22EF50BB22EF60BB22E5A
:101D7000B92E83120313071001300A128A11A2250B
:101D80000A128A15003083120313861A0130831653
:101D90000313B7000B107A088312FF0079088A003A
:101DA00078088400770E8300FE0E7E0E09008312F1
:101DB0000313AC01A71FE32EA609A709A60A03195E
:101DC000A70AAC01AC0AA91FEE2EA809A909A80A06
:101DD0000319A90A0130AA002A08AC06AD01AE0118
:101DE000260827040319252FAB01AB0AA71B042FD4
:101DF00001300310A60DA70DFF3E031DF92E013083
:101E0000AA002A08AB07F62E01300310AD0DAE0D67
:101E1000FF3E031D052F27082902031D112F260849
:101E20002802031C1A2F2608A8022708031CA9034E
:101E3000A9022D1401300310A70CA60CFF3E031DB0
:101E40001B2F0130AB02031D042F2C0803192D2F6B
:101E5000AD09AE09AD0A0319AE0A2E08A7002D0878
:101E6000A6000800003083120313AC000030AB0062
:101E70000030AA000030A900230822042104200415
:101E80000319892FAD01AD0AA31B542F0130A800FF
:101E90000310A00DA10DA20DA30DA80B482F01301A
:101EA000A8002808AD07442F0130A8000310A90D91
:101EB000AA0DAB0DAC0DA80B562F23082702031D4E
:101EC0006B2F22082602031D6B2F21082502031DFC
:101ED0006B2F20082402031C7C2F2008A402210859
:101EE000031C210FA5022208031C220FA6022308AF
:101EF000031C230FA702291401300310A30CA20C0A
:101F0000A10CA00CFF3E031D7D2F0130AD02031D6F
:101F1000542F2C08A3002B08A2002A08A10029088E
:101F2000A000080083120313230803199C2F220822
:101F300021042004031DAF2F0030A0000030A100B9
:101F40000030A20008000130A5002508A3070130D9
:101F50000310A20CA10CA00CFF3E031DA82FFE3005
:101F600022050319CA2FA32F0130A5002508A307B6
:101F70000130A007003003180130A107003003181A
:101F80000130A20701300310A20CA10CA00CFF3EEF
:101F9000031DC32FFF3022050319D92FB42F0130A1
:101FA000A30201300310A00DA10DA20DFF3E031DE1
:101FB000D22FA11BDF2F023023020318CF2F2318AB
:101FC000E72FFF30A0057F30A105FF30A2050310E9
:101FD000A30C2308A500A601A70110300310A50D2E
:101FE000A60DA70DFF3E031DEE2F2508A004260811
:101FF000A1042708A204240803190800A217080056
:02400E007A3FF7
:00000001FF
