:060000000A128A11122809
:10000800FE00030EF3000408F4000A08F50083124A
:1000180003137F08F6000A128A114C2F0A128A115C
:1000280015280A128A11FC270A128A11E6000A12F8
:100038008A11FB270A128A11F70083134C308400B7
:1000480066300A128A11F32783010A128A11CA2913
:1000580083120313C2003530B7003708BB000130E4
:10006800B407FF30340784000A128A11AE250A1239
:100078008A11B7003708C50045080319C329253078
:100088004506031953284508B70042088400370875
:10009800831380000130B7003708C2073328C30133
:1000A800C401BA01340884000A128A11AE250A1262
:1000B8008A110A128A15F0270A128A11031CF928D4
:1000C80083120313C301C4010A3083120313A0006F
:1000D8000030A1004408A3004308A2000A128A11B4
:1000E800A4270A128A11831203132108C4002008C6
:1000F800C300340884000A128A11AE250A128A1134
:10010800D03EB700FF3003180030B8003708C307E7
:100118000318C40A3808C4070130B7003708B40701
:10012800340884000A128A11AE250A128A110A12AA
:100138008A15F0270A128A11031CF92868288312E5
:10014800031344084102031DAB2843084002031867
:10015800B4284008C3024108031CC403C402B628DB
:10016800C301C401FF30C3070318C40AFF30C40722
:10017800430A0319440A0319DE282030B70042084D
:1001880084003708831380000130B7003708C2079E
:10019800B6283C08840083130008B700420884008E
:1001A800370880000130B7003708BC070130B700B6
:1001B8003708C2070130C0020030031CC103C10266
:1001C800400A031DCD28410A03193328CD2845309C
:1001D800B7003708BC000130C0000030C100A328B8
:1001E800C030B7003708BA040D2901308312031351
:1001F800B407FF30340784000A128A11AE250A12A8
:100208008A11C500003A0319C329753A0319F4285D
:10021800EB283B08840083130008BD00840A00080B
:10022800BE000230B7003708BB07C501C50A053054
:100238004506031940294508B7003707013E8400E1
:100248000A128A11AE250A128A11B8000A128A11F6
:10025800AE250A128A11B90039083E02031D362953
:1002680038083D02031C40290130B7003708C5078C
:1002780005304506031D1F294508B700B801B71BFF
:10028800B8033808803AB9004408803A3902031D97
:100298004F294308370203185F29831203134508BF
:1002A800B700B801B71BB8033708C3023808031CE6
:1002B800C403C402632983120313C301C40143089E
:1002C800440403197C292030B70042088400370809
:1002D800831380000130B7003708C207FF30C30717
:1002E8000318C40AFF30C40743084404031D6729E0
:1002F8004508B7003708BF00FF30B7003708BF0709
:100308003F0A031933280A30AE000030AF003F0817
:10031800B7003707013E84000A128A11AE250A1277
:100328008A11A6000A128A11AE250A128A11A7009C
:100338003E08A9003D08A8000A128A11F5250A12EC
:100348008A11831203132708B1002608B0000A1285
:100358008A11E5260A128A11831203132E08303EE9
:10036800B8003808C5004508B700420884003708B7
:10037800831380000130B7003708C2078029831231
:1003880003134208840083138001080083160313B3
:1003980086160514811380309F00013083120313E1
:1003A8009F000A128A15E8270A128A110A128A116E
:1003B800AC260A128A11323083120313AE000030C1
:1003C800AF000A128A1119270A128A118316031319
:1003D80007108710071287128B150B108B178312C3
:1003E8000313A4013530A5008030A60000300A129E
:1003F8008A1170260A128A11333083120313C80037
:10040800BB30C700DF30C600C60B082AC70B082A56
:10041800C80B082A01300A128A11F3220A128A111B
:10042800462A01300A128A11F3220A128A1183120B
:100438000313A4010B30A5008030A60000300A1277
:100448008A1170260A128A1100300A128A11C727E7
:100458000A128A11003083120313A000A1000A12A5
:100468008A1152250A128A11063083120313C80012
:100478001330C700AD30C600C60B402AC70B402A50
:10048800C80B402A831203135108031D152A0A12A8
:100498008A112B240A128A11831203132F08CF0002
:1004A8002E08CE0000300A128A117D270A128A11FE
:1004B800831203132108CA002008C900FF30A600D0
:1004C8000330A7004A08A1004908A0006430A20030
:1004D8000030A3000A128A11A4270A128A11831273
:1004E80003132108A9002008A8000A128A11F5257B
:1004F8000A128A11831203132608FF3A013E643E4A
:10050800C6004608CB0032304B0203188D2A8716E6
:100518008E2A871201300A128A11F3220A128A11CE
:10052800283083120313C6004608B4004F08B600EB
:100538004E08B50052300A128A112C200A128A116C
:1005480083120313A4015230A5000030A600003026
:100558000A128A1170260A128A111B308312031399
:10056800C6004608B4004B08C700C8014708B500D4
:100578004808B60052300A128A112C200A128A1131
:1005880083120313A4015230A5000030A6000130E5
:100598000A128A1170260A128A11831203134E084E
:1005A8000A128A1133260A128A11831203134F087A
:1005B800A1004E08A0000A128A1152250A128A11B7
:1005C800063083120313C8001330C700AD30C600CD
:1005D800C60BEC2AC70BEC2AC80BEC2A462A831256
:1005E8000313A30008102308A10004300310A10C72
:1005F800FF3E031DFA2A211C052B8312031308163C
:10060800082B8312031308122308A10005300310D6
:10061800A10CFF3E031D0B2B211C162B8312031369
:100628008816192B8312031388122308A100063099
:100638000310A10CFF3E031D1C2B211C272B83122A
:10064800031308172A2B8312031308132308A10086
:1006580007300310A10CFF3E031D2D2B211C382B46
:100668008312031388173B2B8312031388130A1270
:100678008A11E2270A128A1183120313231C482BBA
:100688008312031308164B2B831203130812230833
:10069800A10001300310A10CFF3E031D4E2B211CAD
:1006A800592B8312031388165C2B831203138812A9
:1006B8002308A10002300310A10CFF3E031D5F2B8D
:1006C800211C6A2B8312031308176D2B8312031343
:1006D80008132308A10003300310A10CFF3E031DDB
:1006E800702B211C7B2B8312031388177E2B8312FC
:1006F800031388130A128A11E2270A128A11831235
:1007080003132303031D08000D3083120313A200F3
:10071800FB30A100A10B8E2BA20B8E2B080083129D
:100728000313A20008142208A10004300310A10C2E
:10073800FF3E031D9A2B211CA52B831203130816B9
:10074800A82B8312031308122208A10005300310F6
:10075800A10CFF3E031DAB2B211CB62B83120313E8
:100768008816B92B8312031388122208A1000630B9
:100778000310A10CFF3E031DBC2B211CC72B8312A9
:1007880003130817CA2B8312031308132208A100A6
:1007980007300310A10CFF3E031DCD2B211CD82BC5
:1007A800831203138817DB2B8312031388130A128F
:1007B8008A11E2270A128A1183120313221CE82BDA
:1007C800831203130816EB2B831203130812220853
:1007D800A10001300310A10CFF3E031DEE2B211CCC
:1007E800F92B831203138816FC2B83120313881228
:1007F8002208A10002300310A10CFF3E031DFF2BAD
:10080800211C0A2C8312031308170D2C83120313BF
:1008180008132208A10003300310A10CFF3E031D9A
:10082800102C211C1B2C8312031388171E2C8312D7
:10083800031388130A128A11E2270A128A11523006
:1008480083120313A100A10B272C000008008312B8
:100858000313B101B2016030B300EA30B4000614EA
:100868000F3083120313B000B00B382C3B2C8312CB
:1008780003130610422C402C412C00008312031352
:10088800061A522C0130B3020030031CB403B40220
:10089800330A031D3F2C340A031D3F2C330834044C
:1008A800031D5B2CE730AE000330AF0008008E015B
:1008B8008F0110146030B300EA30B400662C642C49
:1008C800652C000083120313061E762C0130B30238
:1008D8000030031CB403B402330A031D632C340A2A
:1008E800031D632C101033083404031D802CE730DB
:1008F800AE000330AF0008000F08B2000E08B100C8
:100908007530A6000030A7003208A9003108A800F9
:100918000A128A11F525031083120313260DAE005F
:10092800270DAF000800003083120313AC0000301D
:10093800AB000030AA000030A900230822042104DB
:1009480020040319EE2CAD01AD0AA31BB92C01300C
:10095800A8000310A00DA10DA20DA30DA80BAD2C8E
:100968000130A8002808AD07A92C0130A800031001
:10097800A90DAA0DAB0DAC0DA80BBB2C23082702A3
:10098800031DD02C22082602031DD02C2108250285
:10099800031DD02C20082402031CE12C2008A402EB
:1009A8002108031C210FA5022208031C220FA602FE
:1009B8002308031C230FA702291401300310A30CDA
:1009C800A20CA10CA00CFF3E031DE22C0130AD02CD
:1009D800031DB92C2C08A3002B08A2002A08A1008B
:1009E8002908A000080083120313AC01A71F032DD8
:1009F800A609A709A60A0319A70AAC01AC0AA91FE8
:100A08000E2DA809A909A80A0319A90A0130AA00E4
:100A18002A08AC06AD01AE01260827040319452DA6
:100A2800AB01AB0AA71B242D01300310A60DA70D9F
:100A3800FF3E031D192D0130AA002A08AB07162D09
:100A480001300310AD0DAE0DFF3E031D252D270807
:100A58002902031D312D26082802031C3A2D2608D9
:100A6800A8022708031CA903A9022D1401300310AA
:100A7800A70CA60CFF3E031D3B2D0130AB02031D46
:100A8800242D2C0803194D2DAD09AE09AD0A031903
:100A9800AE0A2E08A7002D08A6000800831203132B
:100AA80051080319852D071687100130CC07031844
:100AB800CD0A0030CD0700304D02C83003194C0272
:100AC8000318682D0714080001304D0290300319EF
:100AD8004C020318712D0710080002304D025830DF
:100AE80003194C0203187A2D071408000710033065
:100AF8004D02E83003194C02031C0800CC01CD015B
:100B080008000712003021020B30031920020318D5
:100B1800A12D07145008031D932D0130942D00308A
:100B2800A2002208D000501C9D2D831203138714A5
:100B380008008312031387100800071087100800A5
:100B4800FF1BAE2D83137F1883170008840A03192F
:100B5800FF0A080005308A000408840A8207003466
:100B6800013400340A34003464340034E834033483
:100B78001034273445344D344534523447344534E1
:100B88004E344334593420344D344F34443445348E
:100B9800213400344C3469346734683474343A345A
:100BA8002034253433347534253425340034443422
:100BB8006934733474343A34203425343334753416
:100BC800203463346D3400345334793473347434DA
:100BD80065346D3420345234653461346434793486
:100BE800003483120313AB01AC0126082704031950
:100BF8002E2EAD01AD0AA71B0D2E01300310A60D38
:100C0800A70DFF3E031D022E0130AA002A08AD07DA
:100C1800FF2D01300310AB0DAC0DFF3E031D0E2E52
:100C280027082902031D1A2E26082802031C232E32
:100C38002608A8022708031CA903A9022B140130BF
:100C48000310A70CA60CFF3E031D242E0130AD0295
:100C5800031D0D2E2C08A7002B08A60008008312E0
:100C68000313B200B430A6000030A7003208AF006A
:100C7800B0012F08A0003008A1001430A2000030F5
:100C8800A3000A128A11A4270A128A1183120313D5
:100C98002108A9002008A8000A128A11F7240A12BC
:100CA8008A11831203132608053EB1003108B300E8
:100CB800330866020318652E0130AF002F08E607D7
:100CC8006B2E6608330203186B2E0130E6026608A5
:100CD8000A128A11C727080083120313A8002808DC
:100CE8000319782EC030792E8030A9000030AA0070
:100CF8002908A7002708AB0024082B070A128A1125
:100D0800F3220A128A11831203132608FF0025080A
:100D180084000A128A11A4250A128A11003A0319BA
:100D28000800831203132608FF00250884000A120E
:100D38008A11A4250A128A110A128A1193230A1207
:100D48008A11013083120313A5070318A60A872EF8
:100D580083160313881308138812081288110810C1
:100D6800023083120313A6004530A500A930A40061
:100D7800A40BBC2EA50BBC2EA60BBC2E33300A121E
:100D88008A11F3220A128A1132300A128A11F322C6
:100D98000A128A1128300A128A11F3220A128A11B9
:100DA8000C300A128A11F3220A128A1101300A122F
:100DB8008A11F3220A128A1106300A128A11F322C2
:100DC8000800831203132E082F040319142FB301EC
:100DD800B30AAF1BFB2E01300310AE0DAF0DFF3E63
:100DE800031DF02E0130B2003208B307ED2E2F0894
:100DF8003102031D012F2E083002031C092F2E0873
:100E0800B0022F08031CB103B10201300310AF0C6C
:100E1800AE0CFF3E031D0A2F0130B302031DFB2E4B
:100E28003108AF003008AE000800831203132E0803
:100E3800B0002F08B100B201B30104300310B00DA7
:100E4800B10DB20DB30DFF3E031D222F3308A300D1
:100E58003208A2003108A1003008A0000130A70024
:100E68003130A6002D30A5000030A4000A128A11E6
:100E78009724831203132008FF3E8316031392005E
:100E880005308312031392000C3097009501080077
:100E98000B1C722F861A6D2F7703031D6D2F0230DE
:100EA800F2004530F100A930F000F00B592FF10B9A
:100EB800592FF20B592F602F83120313861A6D2FA7
:100EC8005108031D692F01306A2F0030F0007008A7
:100ED800D1000030861A0130F7000B107608FF00A9
:100EE80075088A0074088400730E8300FE0E7E0E57
:100EF800090083120313A4002408A200023003107F
:100F0800A20DFF3E031D832F0310220D01389F0001
:100F18000D3083120313A300FB30A200A20B922F03
:100F2800A30B922F831203131F151F19992F1E0845
:100F3800A100831603131E0883120313A0000800E0
:100F480083120313A401A501201CB02F2208A407B3
:100F58000318A50A2308A50701300310A20DA30D45
:100F6800FF3E031DB12F01300310A10CA00CFF3E62
:100F7800031DB82F20082104031DA82F2508A10050
:100F88002408A000080083120313A1002108A00070
:100F980002300310A00CFF3E031DCD2F2008950042
:100FA80021080339A00004300310A00DFF3E031DE3
:100FB800D82F1708CF39200497000800831203138D
:100FC8008815E62FE72F0000831203138811A53038
:100FD80083120313A000A00BEF2FF22F0800640068
:100FE8008001840A0406031900340406F42F01342E
:020FF8000534BE
:101FD00083160313061006168312031390010800DC
:101FE00083120313A100A0013A3021020318FE2F2F
:101FF00030302102031CFE2FA001A00A200C080093
:02400E007A3FF7
:00000001FF
